:100000000C9463000C948B000C948B000C94530D97
:100010000C94530D0C94530D0C948B000C948B008A
:100020000C948B000C948B000C948B000C948B0024
:100030000C948B000C948B000C948B000C948B0014
:100040000C94B10C0C948B000C94210D0C94FB0CB3
:100050000C948B000C948B000C948B000C948B00F4
:100060000C948B000C948B0000000008000201002F
:100070000003040700000000000000000000000072
:1000800023002600290000000000240027002A0089
:1000900000000000250028002B00040404040404D0
:1000A0000404020202020202030303030303010227
:1000B00004081020408001020408102001020408F6
:1000C00010204410931411241FBECFEFD8E0DEBFE0
:1000D000CDBF25E0A8EFB2E001C01D92A533B20765
:1000E000E1F712E0A0E0B1E0EEE3F4E302C0059036
:1000F0000D92A83FB107D9F710E0C2E6D0E004C0E6
:100100002197FE010E940218C136D107C9F70E944B
:100110005C120C94121A0C940000CF92DF92EF92B2
:10012000FF921092E9036091F3037091F4038091C0
:10013000F5039091F6030E94F21428E23BE64EE6A6
:100140005EE40E944F176B017C016091F103709196
:10015000F20390E080E00E94F2149B01AC01C70121
:10016000B6010E94E3162091F70321119058FF90E9
:10017000EF90DF90CF900895CF92DF92EF92FF92B1
:100180001092E9036091EC037091ED038091EE030E
:100190009091EF030E94F21428E23BE64EE65EE403
:1001A0000E944F176B017C016091EA037091EB0391
:1001B00090E080E00E94F2149B01AC01C701B601FF
:1001C0000E94E3162091F00321119058FF90EF90C8
:1001D000DF90CF900895CF92DF92FF920F931F93FD
:1001E000CF93DF93EC01F62E142F1B821A8288EE38
:1001F00093E0A0E0B0E08C839D83AE83BF838AE070
:1002000091E0998388831F8A1E8A198E188E1B8E0F
:100210001A8E1D8E1C8E6E8D6E7F6D7F6E8F669515
:10022000617081E06827842F0E94F80F412F50E011
:100230009A0122553F4FF901649146565F4FFA01EA
:100240008491882399F090E0880F991FFC01EA5768
:10025000FF4FA591B491FC01E057FF4F8591949118
:100260008FB7F8949C91692B6C938FBFF9012491FF
:10027000288BFA014491E42FF0E0EE0FFF1FE057C6
:10028000FF4F859194919A8B898B0F2D10E0C801B7
:1002900082559F4F6C01FC01249106561F4FF801B7
:1002A00084918823C9F090E0880F991FFC01EA57D8
:1002B000FF4FA591B491FC01E057FF4F4591549138
:1002C0003FB7F8949C91822F809598239C93FA01D4
:1002D0009081892380833FBF8E8D81FD04C061E0C2
:1002E0008F2D0E94F80FFC86F601C490CD86F80190
:1002F0000491E02FF0E0EE0FFF1FE458FF4F8591CF
:1003000094919F878E87DF91CF911F910F91FF90DE
:10031000DF90CF9008958E50806480937C00809110
:100320007A00806480937A0080917A0086FDFCCF09
:10033000809178009091790008953FB7F89480916A
:100340003D0390913E03A0913F03B091400326B539
:10035000A89B05C02F3F19F00196A11DB11D3FBFFD
:10036000BA2FA92F982F8827BC01CD01620F711DCC
:10037000811D911D42E0660F771F881F991F4A95C6
:10038000D1F708958F929F92AF92BF92CF92DF9252
:10039000EF92FF924B015C010E949D016B017C0179
:1003A0000E949D016C197D098E099F09683E73406A
:1003B00081059105A8F321E0821A9108A108B108EE
:1003C00088EEC80E83E0D81EE11CF11C8114910454
:1003D000A104B10429F7FF90EF90DF90CF90BF9078
:1003E000AF909F908F9008952FB7F8946091390344
:1003F00070913A0380913B0390913C032FBF089585
:100400001092B8041092B9041092B704E4E7F4E033
:1004100080E090E020E03191332341F0378D3323A9
:1004200021F02F5F931708F4932F8F5F34E0E439A6
:10043000F30789F72093B8049093B7048093B90425
:100440008FEF8093B6040E94F4016093BB04709315
:10045000BC048093BD049093BE0481E08093B504F6
:100460008093B404089587E0E8EFF3E0AAEEB3E0E8
:1004700001900D928A95E1F787E0EFEFF3E0A1EFAD
:10048000B3E001900D928A95E1F780910C04909170
:100490000D0490930B0480930A04809110049091B2
:1004A000110490930F0480930E040E94F401609352
:1004B000060470930704809308049093090481E074
:1004C0008093E9038091F8039091F9038B359105AE
:1004D00040F481E02091FF0330910004253B310579
:1004E00008F080E08093E80308954F925F926F9246
:1004F0007F928F929F92AF92BF92CF92DF92EF92B4
:10050000FF92409022045090230460902404709045
:100510002504C0902604D0902704E0902804F09091
:100520002904C0922204D0922304E0922404F09281
:1005300025041092210484E6882E912CA12CB12C44
:10054000C701B601A50194010E944916CA01B9016B
:10055000A50194010E9449166D33D0F4C701B6017C
:1005600020E137E240E050E00E944916CA01B9019B
:10057000A50194010E9449166C3350F4C701B601DD
:1005800020E432E44FE050E00E9449162831B8F0F0
:10059000109220044092220450922304609224047A
:1005A00070922504FF90EF90DF90CF90BF90AF90B6
:1005B0009F908F907F906F905F904F9008950E94D2
:1005C000F40160932A0470932B0480932C0490937D
:1005D0002D0481E08093210480932004E3CFAF9227
:1005E000BF92CF92DF92EF92FF920F931F93CF9320
:1005F000DF936C017B018B01040F151FEB015E0182
:10060000AE18BF08C017D10759F06991D601ED9116
:10061000FC910190F081E02DC6010995892B79F7B5
:10062000C501DF91CF911F910F91FF90EF90DF9067
:10063000CF90BF90AF900895FC01538D448D252F2E
:1006400030E0842F90E0821B930B541710F0CF966C
:10065000089501970895FC01918D828D981761F09E
:10066000A28DAE0FBF2FB11D5D968C91928D9F5FB5
:100670009F73928F90E008958FEF9FEF0895FC0194
:10068000918D828D981731F0828DE80FF11D858D47
:1006900090E008958FEF9FEF0895FC01918D228DDA
:1006A000892F90E0805C9F4F821B91098F7399275F
:1006B000089585E493E00E944D0321E0892B09F41D
:1006C00020E0822F089580E090E0892B29F00E949D
:1006D000590381110C9400000895FC01A48DA80F0A
:1006E000B92FB11DA35ABF4F2C91848D90E0019674
:1006F0008F739927848FA689B7892C93A089B18994
:100700008C91837080648C93938D848D981306C034
:100710000288F389E02D80818F7D80830895EF9298
:10072000FF920F931F93CF93DF93EC0181E0888FAB
:100730009B8D8C8D98131AC0E889F989808185FF7B
:1007400015C09FB7F894EE89FF896083E889F9891D
:1007500080818370806480839FBF81E090E0DF911F
:10076000CF911F910F91FF90EF900895F62E0B8D72
:1007700010E00F5F1F4F0F731127E02E8C8D8E112D
:100780000CC00FB607FCFACFE889F989808185FF94
:10079000F5CFCE010E946D03F1CFEB8DEC0FFD2F55
:1007A000F11DE35AFF4FF0829FB7F8940B8FEA894F
:1007B000FB8980818062CFCFCF93DF93EC01888D5E
:1007C0008823B9F0AA89BB89E889F9898C9185FDCC
:1007D00003C0808186FD0DC00FB607FCF7CF8C915A
:1007E00085FFF2CF808185FFEDCFCE010E946D03A2
:1007F000E9CFDF91CF910895CF93DF93EC018A8504
:100800009B85AC85BD858E839F83A887B9870E9411
:10081000F4016A837B838C839D8381E08983888351
:10082000DF91CF910895209143033091440328171D
:10083000390771F49091410380914203981741F078
:10084000E0914103F0E0E850FD4F808190E0089591
:100850008FEF9FEF08950895EF92FF920F931F93EC
:10086000CF93DF93DC015C96ED90FC905D97E114F3
:10087000F10479F481E090E013969C938E931297A3
:1008800090E080E0DF91CF911F910F91FF90EF906A
:1008900008955196ED91FC91529750968C915097F6
:1008A000982F90950FB75E962C915E97122F12702D
:1008B00021FD6095F8942081112319F1282B2083C4
:1008C000E7012197F1F728E0462F50E0308160FFE3
:1008D0001AC0382B3083E7012197F1F7BA017595DB
:1008E0006795215089F7112381F0808189238083C6
:1008F0000FBF5C968D919C910197F1F781E090E09C
:10090000C1CF2923DCCF3923E5CF9081892BEFCFCD
:1009100020914303309144032817390761F48091F3
:1009200042032091410390E0805C9F4F821B91091C
:100930008F739927089590E080E0089520914303F4
:100940003091440328173907B9F4909141038091FD
:100950004203981789F0E0914103F0E0E850FD4F21
:1009600080812091410330E02F5F3F4F2F73332769
:100970002093410390E008958FEF9FEF0895E09159
:100980004303F0914403E817F90769F4A389B48994
:100990009C918589809589238C93109244031092B1
:1009A000430381E0089580E00895CF93DF93EC0145
:1009B0001B8E1A8E198E188E1F8A1E8A8DE991E061
:1009C0009D8F8C8F8C858631E0F52DEB30E03F8B51
:1009D0002E8B2BE931E0398F288F2CE231E03B8FD1
:1009E0002A8F90916800883008F44EC021E08E3044
:1009F00008F420E081E001C0880F2A95EAF7892BEE
:100A0000809368009C852DE630E0983050F02BE60E
:100A100030E09E3030F02CE630E0963110F030E0DF
:100A200020E03C8B2B8B292F30E0983078F581E04B
:100A300001C0880F9A95EAF78D8B8C8D9D8D01975B
:100A4000F1F78A8D9B8D892BE1F080914303909182
:100A50004403C817D907A9F0009711F00E94BF04FA
:100A60008E8D8E7F8E8F1092420310924103D09311
:100A70004403C0934303EB89FC8980819D89892BC2
:100A80008083DF91CF91089584E0B9CF9E3040F408
:100A90002850310981E001C0880F2A95EAF7CCCFB0
:100AA0002E503109F7CF90E080E00895FB010190CE
:100AB0000020E9F73197AF01461B570BDC01ED91A0
:100AC000FC910280F381E02D09948F929F92AF9266
:100AD000BF92EF92FF920F931F93CF93DF93CDB707
:100AE000DEB7A1970FB6F894DEBF0FBECDBF7C0175
:100AF000FA01CB0119A2223008F42AE08E010F5D21
:100B00001F4F822E912CB12CA12CBF01A501940165
:100B10000E944916F901CA016A300CF5605DD801DE
:100B20006E938D01232B242B252B79F790E080E009
:100B3000109721F0BD01C7010E945605A1960FB67E
:100B4000F894DEBF0FBECDBFDF91CF911F910F9103
:100B5000FF90EF90BF90AF909F908F900895695C49
:100B6000DECFCF92DF92EF92FF92CF93DF936B01B4
:100B70007C016DE285E493E00E948F03EC01442741
:100B80005527BA014C195D096E097F092AE085E4F1
:100B900093E00E9465058C0F9D1FDF91CF91FF9020
:100BA000EF90DF90CF900895CF93DF93AC01990F32
:100BB000660B770B77FF10C0CB01BA010E94B1051D
:100BC000EC016AE271E085E493E00E9456058C0F27
:100BD0009D1FDF91CF9108952AE085E493E00E9464
:100BE0006505EECFAC01990F660B770B77FF04C05C
:100BF000CB01BA010C94B1052AE085E493E00C9492
:100C00006505CF93DF93BC0185E493E00E94560510
:100C1000EC016AE271E085E493E00E9456058C0FD6
:100C20009D1FDF91CF9108952F923F924F925F9237
:100C30006F927F928F929F92AF92BF92CF92DF92EC
:100C4000EF92FF921F93CF93DF93EC016A017B0138
:100C5000722EAB019601CB01B6010E94F5176DE231
:100C600071E0811126C046015701E894B7F82FEFD3
:100C70003FEF4FE75FE7C501B4010E94F51781110F
:100C80000CC02FEF3FEF4FE75FE7C501B4010E94B3
:100C9000ED1461E371E0181664F02FEF3FEF4FE7BA
:100CA0005FE4C701B6010E94F0171816B4F465E3BB
:100CB00071E0CE01DF91CF911F91FF90EF90DF9017
:100CC000CF90BF90AF909F908F907F906F905F90EC
:100CD0004F903F902F900C9456052FEF3FEF4FE72A
:100CE0005FECC701B6010E94ED1487FDE0CF20E064
:100CF00030E0A901C701B6010E94ED14312C212C6E
:100D000087FF0DC0E881F9810190F081E02D6DE24F
:100D1000CE0109951C01F7FAF094F7F8F09410E071
:100D200060E070E080E09FE3711641F020E030E089
:100D300040E251E40E944F171F5FF6CFA7019601D2
:100D40000E94E3162B013C010E94C1174B015C017C
:100D50002AE0BC01A401CE010E9465057C01E20CE1
:100D6000F31C1123E1F1C501B4010E94F2149B01AF
:100D7000AC01C301B2010E94E2164B015C01E881A3
:100D8000F9810190F081E02D6EE2CE010995E80E27
:100D9000F91E115020F120E030E040E251E4C5019D
:100DA000B4010E9453152B013C010E94C1174B0155
:100DB000B12CA12C2AE0B501A401CE010E94650549
:100DC000E80EF91EC501B4010E94F2149B01AC01AA
:100DD000C301B2010E94E2164B015C01DACFC701E8
:100DE000DF91CF911F91FF90EF90DF90CF90BF9058
:100DF000AF909F908F907F906F905F904F903F90BB
:100E00002F9008950F931F93CF93DF93EC010E94CF
:100E100014068C016AE271E0CE010E945605800F33
:100E2000911FDF91CF911F910F9108950C9456055A
:100E30000F931F93CF93C091B604C032B4F4CF5F29
:100E4000C093B6040E94B114EC2FCC0FFF0BEC58EA
:100E5000FB4F2081022F10E030E020E06017710787
:100E60008207930711F0608310A2CF911F910F9119
:100E700008952F923F924F925F926F927F928F923E
:100E80009F92AF92BF92CF92DF92EF92FF920F9319
:100E90001F93CF93DF9325EB30E0FB013183208359
:100EA000FC014081242F042E000C330B2053310908
:100EB0002A30310518F04E3209F051C08B01EC0197
:100EC0000E94B1142991422F022E000C550B405361
:100ED00051094A305105B0F32E3209F040C024E6E2
:100EE00030E040E050E00E944916F8013183208351
:100EF0009B01AC0160E876E988E990E00E94111658
:100F00006B017C011E0180E8882E86E9982E88E915
:100F1000A82EB12C9AE0492E512C612C712CF10194
:100F2000C1911F010C2E000CDD0BE097CA30D105DA
:100F300048F1A5E0B0E0A70196010E9491166F5F0D
:100F40007F4F8F4F9F4F23E030E040E050E00E9402
:100F50004916F80122833383448355831682DF9137
:100F6000CF911F910F91FF90EF90DF90CF90BF90A6
:100F7000AF909F908F907F906F905F904F903F9039
:100F80002F900895C501B401A30192010E94491652
:100F900049015A01DE010E94FA17C60ED71EE81E4B
:100FA000F91EBDCF1F93CF93DF93EC0118811D3243
:100FB00009F42196CE010E94B1149B01AC01A4E674
:100FC000B0E00E949116AB01BC01FE012991822F75
:100FD000022E000C990BC0970A97B8F32E3231F508
:100FE0008181082E000C990BC0978A309105F0F48E
:100FF000AAE0A89F9001A99F300D1124C901330FC9
:10100000AA0BBB0B480F591F6A1F7B1F8281082E3A
:10101000000C990BC0978A30910540F4092E000C02
:10102000AA0BBB0B480F591F6A1F7B1F1D3239F4D7
:1010300070956095509541955F4F6F4F7F4FCB01F5
:10104000BA01DF91CF911F9108954F925F926F92F5
:101050007F928F929F92AF92BF92CF92DF92EF9248
:10106000FF921F93CF93DF93CDB7DEB72C970FB6C8
:10107000F894DEBF0FBECDBF80901404909015048D
:10108000A0901604B0901704C0901804D0901904D2
:10109000E0901A04F0901B04C0921404D09215043E
:1010A000E0921604F09217041092120410921304A6
:1010B000C701B60120E137E240E050E00E94491646
:1010C000122F8FEF820F8F31F0F0809214049092E4
:1010D0001504A0921604B09217042C960FB6F8943B
:1010E000DEBF0FBECDBFDF91CF911F91FF90EF907C
:1010F000DF90CF90BF90AF909F908F907F906F9038
:101100005F904F90089584E6482E512C612C712CED
:10111000C701B601A30192010E9449166B01CA01E1
:10112000B901A30192010E94491661506C3068F622
:1011300096012053384F253E374008F040C084E6E2
:10114000C80ED11CD886CF826E831C8319821A8266
:101150001B82CE0101960E94CB0D4C8120E137E22B
:101160004203C001439F900D1124092E000CAA0BCD
:10117000BB0B4F815885052E000C660B770B840F37
:10118000951FA61FB71F2E81022E000C330B2F5F59
:101190003F4F64E6629FA001639F500D1124052E0E
:1011A000000C660B770B840F951FA61FB71F80934B
:1011B000140490931504A0931604B09317040E948E
:1011C000F40160931C0470931D0480931E0490939B
:1011D0001F0481E080931204809313047ECF0F9349
:1011E0001F93CF93DF93C091C004CC2309F472C145
:1011F0002091C104822F022E000C990B3FEB320F7D
:10120000363008F074C0C7978295807F9091C204F1
:10121000292F092E000C330B4FEB490F463008F0F5
:101220006EC027533109820F9091BF04891338C1D2
:101230008091E5049091E604A091E704B091E80460
:101240000196A11DB11D8093E5049093E604A0933F
:10125000E704B093E8048091D404882399F0809146
:10126000DD049091DE04A091DF04B091E0040196CA
:10127000A11DB11D8093DD049093DE04A093DF04D3
:10128000B093E0048091D004823009F4FEC008F0ED
:101290003FC0882309F4A6C0813009F45CC00091E6
:1012A000D7041091D804D1E00115110509F40CC13F
:1012B000E091D704F091D80466A177A1F80186A146
:1012C00097A10E94F319892B09F0FEC0B801C8014B
:1012D00040960E94FC190E94F401F80160A371A3DA
:1012E00082A393A3D5A3D4A302A513A5DDCF215632
:1012F000263018F48755910987CFC09785CF91562E
:10130000963018F4275531098ECF205331098BCFF1
:10131000833009F4B7C0843011F60E9425080E947A
:1013200075028091D404882309F4B9CF8091120406
:10133000882309F4B4CF80912004882309F4AFCF27
:101340000E9433028091E8038111A9CF1092120408
:101350001092200433C00E9425080E9475028091DB
:10136000D404882309F49BCF80911204882309F4C4
:1013700096CF80912004882309F491CF0E943302F4
:101380008EE294E00E94FC038CE394E00E94FC0354
:101390008091E803882341F080912E04882321F076
:1013A00080913C0481117BCF109212041092200492
:1013B0001092E80310922E0410923C048091E904EC
:1013C0009091EA04A091EB04B091EC040196A11D68
:1013D000B11D8093E9049093EA04A093EB04B093C9
:1013E000EC045DCF0E9475028091620490916304C9
:1013F000A0916404B091650480935E0490935F04AF
:10140000A0936004B09361040E94F40160935A04B5
:1014100070935B0480935C0490935D0481E08093FF
:1014200059048093580486E694E00E94FC0380915E
:10143000D404882309F433CF80912004882309F44D
:101440002ECF0E9433028AE494E00E94FC03809134
:101450005804882361F080916604882341F08091CC
:10146000E803882321F080914A04811118CF10925B
:10147000200410925804109266041092E80310920F
:101480004A049CCF0E9400020ACF8091BA048111C5
:1014900002C00E94000286E694E00E94FC03FFCE98
:1014A0008091E1049091E204A091E304B091E404FE
:1014B0000196A11DB11D8093E1049093E204A093D5
:1014C000E304B093E404C0E08C2FDF91CF911F912F
:1014D0000F9108953091D20431117FC086E080933E
:1014E000D0041092D10481EC94E0FC010190002022
:1014F000E9F7CF01825C9440059748F18091C104DF
:10150000873429F58091C2048234A9F08C3421F00B
:10151000813429F482E001C081E08093D10469E341
:1015200071E083EC94E00E94F319892B31F481E09F
:101530008093D0040CC083E0F0CF6DE371E083ECC6
:1015400094E00E94F319892BF9F41092D004809151
:10155000D5049091D6049093D8048093D704009139
:10156000D7041091D8040115110509F4ADCF61EC31
:1015700074E0F80186A197A10E94F31997FFE9C1D1
:10158000F80182A593A5E7CF61E471E083EC94E0D4
:101590000E94F319892B11F482E0CACF65E471E04F
:1015A00083EC94E00E94F319892B11F483E0C0CFFF
:1015B00069E471E083EC94E00E94F319892B11F443
:1015C00085E0B6CF6DE471E083EC94E00E94F319FE
:1015D000892B09F0BCCF84E0ABCF8091D00486305A
:1015E000A9F12091C104222389F1F0E28F9FC0016B
:1015F0001124832B8932910509F42EC108F0A3C070
:101600008930910509F455C108F068C0843091050E
:1016100009F40BC108F048C08230910509F4F7C005
:1016200008F0FCC0019709F467C08091D0048230B3
:1016300069F48091BA04811109C08091D204835069
:101640008C3020F481EC94E00E9418070091D704BC
:101650001091D8040115110509F436CFE091D70493
:10166000F091D80466A177A1F80186A197A10E9404
:10167000F319892B09F028CFF80120A531A5809115
:10168000D20490E0821793070CF41ECF2817390775
:1016900039F440E150E061EC74E0C8010E94031AA3
:1016A000F80102A513A5D6CF8630910509F4E1C053
:1016B00008F4BEC08730910509F4EEC0089709F020
:1016C000B4CF81EC94E00E94D207609370047093D1
:1016D00071048093720490937304A7CF84329105B0
:1016E00009F49CC0B0F48232910509F489C008F075
:1016F0008EC0819709F099CF81EC94E00E94D207C7
:1017000060932604709327048093280490932904FF
:101710008CCF8632910509F48BC008F486C08732DD
:10172000910509F48CC0889709F07FCF81EC94E093
:101730000E94D20760934604709347048093480444
:101740009093490472CF8F36910501F1F0F58436FC
:101750009105B1F198F48035910509F4B2CF823644
:10176000910509F4B3C08C9709F05FCF022E000CED
:10177000330B309311042093100457CF8836910512
:10178000F9F0B8F48736910509F04FCF1091B604FF
:1017900010320CF04ACF81EC94E00E94B114E12F9A
:1017A000110FFF0BEC58FB4F60A381E08093BA044C
:1017B0003CCF8B36910551F38C36910509F035CF2E
:1017C00081EC94E00E94180730CF8238910531F106
:1017D00058F483379105D1F281389105C1F08037F3
:1017E000910509F022CFECCF8438910509F1E8F09A
:1017F0008538910509F480CF8638910509F015CF19
:1018000081E0213409F080E08093D4040ECF68EFAA
:1018100073E081EC94E00E94390707CF81E0233523
:1018200009F080E08093FE0300CF6FEF73E0F1CF0B
:1018300081E0273509F080E080930504F6CE81EC45
:1018400094E00E94D2076093380470933904809327
:101850003A0490933B04E9CE81EC94E00E94B114E9
:10186000609318047093190480931A0490931B04D6
:10187000DCCE81E021330CF480E08093D40490E04E
:1018800080E0213324F0822F220F990BC097909390
:101890000D0480930C04C9CE81EC94E00E94B11435
:1018A000609362047093630480936404909365046E
:1018B000BCCE81EC94E00E94D207609354047093F4
:1018C00055048093560490935704AFCE1091D104E1
:1018D00081EC94E00E94B114DC01CB010197A109D5
:1018E000B10922E0880F991FAA1FBB1F2A95D1F7C3
:1018F00020E1129FA0011124052E000C660B770B2E
:10190000840F951FA61FB71F80329105A105B10551
:1019100008F08BCEAC01BD01FC01E457FF4FE8514C
:10192000FC4F8C019D010D5F1F4F2F4F3F4F041740
:101930001507260737074CF0403239F01192178E01
:101940004F5F5F4F6F4F7F4FF2CF81508093B60450
:101950006CCE892B09F4B8CD1092D8041092D7041C
:10196000B3CD1F920F920FB60F9211242F933F9376
:101970008F939F93AF93BF938091390390913A03D4
:10198000A0913B03B0913C033091380323E0230F37
:101990002D3758F50196A11DB11D20933803809372
:1019A000390390933A03A0933B03B0933C03809197
:1019B0003D0390913E03A0913F03B09140030196F7
:1019C000A11DB11D80933D0390933E03A0933F035F
:1019D000B0934003BF91AF919F918F913F912F9111
:1019E0000F900FBE0F901F90189526E8230F0296B8
:1019F000A11DB11DD2CF1F920F920FB60F921124CD
:101A00002F933F934F935F936F937F938F939F9306
:101A1000AF93BF93EF93FF9385E493E00E946D0330
:101A2000FF91EF91BF91AF919F918F917F916F91B6
:101A30005F914F913F912F910F900FBE0F901F908C
:101A400018951F920F920FB60F9211242F938F9318
:101A50009F93EF93FF93E0915503F091560380819C
:101A6000E0915B03F0915C0382FD1BC0908180914B
:101A70005E038F5F8F7320915F03821741F0E091C7
:101A80005E03F0E0EB5BFC4F958F80935E03FF916C
:101A9000EF919F918F912F910F900FBE0F901F90FC
:101AA00018958081F4CF1F920F920FB60F921124D8
:101AB0002F933F934F935F936F937F938F939F9356
:101AC000AF93BF93EF93FF93E0914303F0914403EF
:101AD000309749F0A685B7858585968D91FF14C00E
:101AE0009C918923A1F4FF91EF91BF91AF919F91B8
:101AF0008F917F916F915F914F913F912F910F90B7
:101B00000FBE0F901F9018959C91892361F7A389B0
:101B1000B4899C918589809589238C93868997893E
:101B20000197F1F7608D718DA685B785558538E0F1
:101B300020E0CB010197F1F7822F90E095958795F2
:101B4000282F4C91452309F02068315091F7868D5C
:101B500081FD20958091420390E001968F73992733
:101B600030914103381799F0A0914203B0E0A8509A
:101B7000BD4F2C9380934203828D938D0197F1F793
:101B8000A389B4898C919589892B8C93ACCF868D50
:101B90008160868FF1CFA4E0B0E0E1EDFDE00C9430
:101BA000AA168C010E94640E69837A838B839C83BE
:101BB000F8018285938597FF0EC0E0912F05F09183
:101BC0003005309741F06BE275E0CE010196099542
:101BD000F80193878287F801828593851816190684
:101BE00084F4092E000CAA0BBB0B49815A816B812E
:101BF0007C81481B590B6A0B7B0B49835A836B838F
:101C00007C8389819A81AB81BC8140912B05509165
:101C10002C0560912D0570912E05841B950BA60B4C
:101C2000B70B89839A83AB83BC83B801CE0101963D
:101C30000E94220E69817A818B819C812496E4E046
:101C40000C94C616A4E0B0E0E8E2FEE00C94A61600
:101C50006C017B01E0912F05F09130050FEF1FEF34
:101C6000309721F06BE275E009958C01F6018081D7
:101C70009181A281B38140912B0550912C056091F7
:101C80002D0570912E05840F951FA61FB71F1016E6
:101C9000110684F089839A83AB83BC83B701CE019C
:101CA00001960E94200FF701138702872496E8E02F
:101CB0000C94C216A801012E000C660B770B840F42
:101CC000951FA61FB71FE6CF8F929F92AF92BF922C
:101CD000CF92DF92EF92FF92CF93DF93EC01EE81F0
:101CE000FF817F0124E6E21AF108D12CC12CB1F06A
:101CF000CF01855691096C0197FF03C023E0C20E06
:101D0000D11CD594C794D594C7946CE97FEF0E94F9
:101D10003516C60ED71E8FEFC81AD80A2DE631E049
:101D2000D7010E948A164601DD0CAA08BB08860E60
:101D3000971EA81EB91E8B81082E000C990B7C01E2
:101D400021E0E21AF1082D8122300CF049C0222353
:101D500021F07C012EE1E20EF11C6701FF0CEE0880
:101D6000FF08C80CD91CEA1CFB1CAA810A2E000C17
:101D7000BB0B20E13EE00E948A164B015C01A98169
:101D80000A2E000CBB0B2CE330E00E948A16AB013C
:101D9000BC01480D591D6A1D7B1D8881082E000C51
:101DA000990BAA0BBB0B4C015D01840E951EA61E60
:101DB000B71EA701960160E871E581E090E00E94FE
:101DC0001116680D791D8A1D9B1DDF91CF91FF9023
:101DD000EF90DF90CF90BF90AF909F908F9008953D
:101DE000CF018459984F0E94E40FC82ED12C8BE369
:101DF000C80ED11CCE0CDF1C8D81082E000C990B57
:101E00000297853091051CF029E9C20ED11C65E0CE
:101E100070E00E9435169C0197FF02C02F5F3F4F74
:101E2000359527959DE3929F7001939FF00C1124A7
:101E3000EC0CFD1C80FF91CF8FE1E80EF11C8DCFE3
:101E4000A8E0B0E0E6E2FFE00C94A6168B01FC01EE
:101E5000608171818281938120E831E541E050E029
:101E60000E94491669017A012CE330E040E050E01D
:101E70000E946B1629833A834B835C8389819A8104
:101E8000AB81BC81F80160836CE370E00E94351681
:101E9000DC01F801A1836283C601069667E070E069
:101EA0000E94211684832DEA3EE840E050E0C701FD
:101EB000B6010E946B1629833A836D837E838F83DC
:101EC000988789819A8124E6289F6001299FD00CF8
:101ED00011246D817E818F81988525EB35E040E06E
:101EE00050E00E946B1629833A836D837E83E980DC
:101EF000FA80EE0CFF1CEE0CFF1CEC0CFD1C8D811F
:101F00009E81F5E6EF16F104A0F1019621E030E0A4
:101F1000A90144595E4F4817590760F46DE671E016
:101F2000821B930B0E943516DC01E60EF71ECD01D5
:101F300030E020E044E6E40EF11CF801F782E6828E
:101F400091878087255C3F4F82179307E0F46FE10C
:101F500070E00E943516DC01F8016583A383F80167
:101F60001386128683818F5F83832896E8E00C9422
:101F7000C21651E040E024E6E216F10409F450E014
:101F8000252F342FC5CF69E970E0821B930B0E9487
:101F90003516DC01262F220F220FF22EF60E6DE3EE
:101FA00070E0CD010E943516DC01E62EEE0C6FE1EB
:101FB00070E0CD010E943516DC0122E0260F2F0DC6
:101FC0002E0DF8012583CACF9C0123703327232BC4
:101FD00059F464E670E00E943516892B39F4637079
:101FE000772781E0672B19F080E0089581E008955C
:101FF00090E0FC01E859FF4F2491FC01E255FF4FAE
:102000003491FC01E656FF4FE491EE23C9F0222300
:1020100039F0233001F1A8F4213019F1223029F1EF
:10202000F0E0EE0FFF1FE057FF4FA591B4918FB77F
:10203000F894EC91611126C030953E233C938FBFFC
:1020400008952730A9F02830C9F0243049F780914D
:1020500080008F7D03C0809180008F778093800007
:10206000DFCF84B58F7784BDDBCF84B58F7DFBCF89
:102070008091B0008F778093B000D2CF8091B00074
:102080008F7DF9CF3E2BDACF109248031092470391
:1020900088EE93E0A0E0B0E08093490390934A0378
:1020A000A0934B03B0934C038CE191E090934603D3
:1020B0008093450385EC90E0909352038093510305
:1020C00084EC90E0909354038093530380EC90E071
:1020D000909356038093550381EC90E090935803BE
:1020E0008093570382EC90E090935A0380935903B6
:1020F00086EC90E090935C0380935B0310925E0308
:1021000010925F03109260031092610343E062E05B
:102110008CE095E00E94EB004BE06AE08DEE94E0ED
:102120000E94EB001092E8031092E9031092EB0377
:102130001092EA031092EC031092ED031092EE035A
:102140001092EF031092F0031092F2031092F10339
:102150001092F3031092F4031092F5031092F60319
:102160001092F7031092F9031092F8031092FA03F9
:102170001092FB031092FC031092FD031092FE03D9
:10218000109200041092FF031092010410920204B6
:102190001092030410920404109205041092060495
:1021A00010920704109208041092090410920B0474
:1021B00010920A0410920D0410920C048EE490E028
:1021C00090930F0480930E04909311048093100455
:1021D0001092120410921304109214041092150419
:1021E00010921604109217041092180410921904F9
:1021F00010921A0410921B0410921C0410921D04D9
:1022000010921E0410921F041092200410922104B8
:102210001092220410922304109224041092250498
:102220001092260410922704109228041092290478
:1022300010922A0410922B0410922C0410922D0458
:1022400010922E0410922F04109230041092310438
:102250001092320410923304109234041092350418
:1022600010923604109237041092380410923904F8
:1022700010923A0410923B0410923C0410923D04D8
:1022800010923E0410923F041092400410924104B8
:102290001092420410924304109244041092450498
:1022A0001092460410924704109248041092490478
:1022B00010924A0410924B0410924C0410924D0458
:1022C00010924E0410924F04109250041092510438
:1022D0001092520410925304109254041092550418
:1022E00010925604109257041092580410925904F8
:1022F00010925A0410925B0410925C0410925D04D8
:1023000010925E0410925F041092600410926104B7
:102310001092620410926304109264041092650497
:102320001092660410926704109268041092690477
:1023300010926A0410926B0410926C0410926D0457
:1023400010926E0410926F04109270041092710437
:10235000109272041092730480E2E4E7F4E0DF016B
:10236000982F1D929A95E9F7E4E9F4E0DF011D92B8
:102370008A95E9F71092B4041092B5048FEF809318
:10238000B6041092B7041092B8041092B9041092D7
:10239000BA041092BB041092BC041092BD041092B7
:1023A000BE041092BF041092C004E1ECF4E08FE090
:1023B000DF011D928A95E9F786E08093D0041092A0
:1023C000D1041092D2041092D3041092D40410922B
:1023D000D6041092D5041092D8041092D70410920B
:1023E000D9041092DA041092DB041092DC041092EB
:1023F000DD041092DE041092DF041092E0041092CB
:10240000E1041092E2041092E3041092E4041092AA
:10241000E5041092E6041092E7041092E80410928A
:10242000E9041092EA041092EB041092EC0410926A
:10243000E3031092E2031092E5031092E40310927A
:10244000E7031092E60361E070E090E080E00E9414
:102450002D190097E1F09093E3038093E20310922B
:10246000E5031092E4032091E6033091E703232B68
:1024700011F4FC0110821092E7031092E6036CE263
:1024800071E08091E2039091E3030C94FC19809138
:10249000E2039091E303009711F00E94A4181092B8
:1024A000E3031092E2031092E7031092E603109206
:1024B000E5031092E4030895789484B5826084BDA6
:1024C00084B5816084BD85B5826085BD85B5816038
:1024D00085BD80916E00816080936E0010928100B6
:1024E0008091810082608093810080918100816071
:1024F0008093810080918000816080938000809132
:10250000B10084608093B1008091B00081608093BD
:10251000B00080917A00846080937A0080917A0084
:10252000826080937A0080917A00816080937A0043
:1025300080917A00806880937A001092C100E091C7
:102540005503F091560382E08083E0915103F091AE
:1025500052031082E0915303F09154038FEC808377
:1025600010925D03E0915903F0915A0386E0808355
:10257000E0915703F0915803808180618083E0915E
:102580005703F0915803808188608083E09157035E
:10259000F0915803808180688083E0915703F09127
:1025A000580380818F7D80838DEE94E00E94D50456
:1025B0008CE095E00E94D50481E591E00E9401063F
:1025C0008AE691E00E94010666E771E085E493E007
:1025D0000E94160790E080E00E94F20569E971E030
:1025E00085E493E00E94160790E080E00E94F205E7
:1025F0006EE971E085E493E00E94160790E080E0C8
:102600000E94D40568EE73E080E090E00E94C20171
:10261000C0E0D0E006E08DEE94E00E948804181639
:1026200019060CF06AC08DEE94E00E949E04182FEB
:102630008091D9049091DA04A091DB04B091DC047C
:102640000196A11DB11D8093D9049093DA04A09343
:10265000DB04B093DC04143269F1E091D304153249
:102660006CF41A3011F01D30A1F5EF3088F4F0E071
:10267000EF53FB4F10820E94EF080EC01A32A9F3ED
:102680001C3239F58091BF0481278093BF04EDCFC0
:102690008091D004853079F38091D2048F5F80934C
:1026A000D2041092D30481E01A3209F080E08093C2
:1026B000C004B1CF1092D3041092D2041092BF0480
:1026C0000093D0041092D1041092C0041092D4044C
:1026D000A2CFEE3040F481E08E0F8093D304F0E07F
:1026E000EF53FB4F10838091C004811194CF8091F0
:1026F000BF0418271093BF048ECF83EA91E00E9495
:1027000001068091E803882309F408C168EB71E0B1
:1027100085E493E00E9416070E94BC00AB01BC0157
:1027200026E030E085E493E00E94020768EC71E067
:1027300085E493E00E9416070E948D00AB01BC0166
:1027400026E030E085E493E00E94020769ED71E045
:1027500085E493E00E94160710922F0460913404E0
:102760007091350480913604909137040E94F414DE
:102770002EEB3CE443E95FE30E94531520E030E098
:1027800048EC52E40E944F17AB01BC0122E030E05C
:1027900085E493E00E9402078FE00E948B015C01B8
:1027A00080E10E948B016C0181E10E948B017C0120
:1027B000C5010E94F20569E971E085E493E00E9499
:1027C0001607C6010E94F2056EE971E085E493E008
:1027D0000E941607C7010E94D40568EE73E080E0EE
:1027E00090E00E94C2018DEBA81682E0B8065CF46E
:1027F0008DEBC81682E0D80634F48DEBE81682E043
:10280000F8060CF47AC085E092E00E94010682E1AD
:1028100092E00E94010660ED77E080E090E00E9487
:10282000C2018DE292E00E94010668E572E08CE050
:1028300095E00E9416078AE692E00E94010660E198
:1028400077E280E090E00E94C20167E772E08CE0EE
:1028500095E00E9416078CE792E00E9401066CE862
:1028600072E08CE095E00E94160760EA72E08CE06E
:1028700095E00E9416076BEA72E08CE095E00E94FA
:1028800016070E94BC00AB01BC0126E08CE095E07D
:102890000E94140667EB72E08CE095E00E94160738
:1028A0000E948D00AB01BC0126E08CE095E00E9407
:1028B000140665EC72E08CE095E00E9416070E9419
:1028C000BC00AB01BC0126E08CE095E00E94140640
:1028D00065EF72E08CE095E00E9416070E948D0083
:1028E000AB01BC0126E030E08CE095E00E940207DD
:1028F0006AE18CE095E00E942C0468EE73E080E0D1
:1029000090E00E94C201209709F485CE0E945903ED
:10291000882309F480CE0E9400007DCE89EE91E0EC
:102920000E94010639CFCF93DF938091E20390910B
:10293000E303009711F00E94A418CAE0D1E0D093FD
:10294000EE04C093ED048DEE94E00E94BF04D0939A
:102950000D05C0930C058CE095E0DF91CF910C94B0
:10296000BF041F93FC0199278827BC01E8941191AB
:102970001032E9F3193010F01E30C8F31B3251F059
:102980001D3249F4689406C00E94D814610F711D6D
:10299000811D911D119110531A30B0F33EF49095A2
:1029A0008095709561957F4F8F4F9F4F1F91089530
:1029B000592F482F372F262F660F771F881F991FF3
:1029C000660F771F881F991F620F731F841F951F43
:1029D000660F771F881F991F08950E942F1508F40E
:1029E00081E00895E89409C097FB3EF490958095A6
:1029F000709561957F4F8F4F9F4F9923A9F0F92FC5
:102A000096E9BB279395F695879577956795B79542
:102A1000F111F8CFFAF4BB0F11F460FF1BC06F5F28
:102A20007F4F8F4F9F4F16C0882311F096E911C03A
:102A3000772321F09EE8872F762F05C0662371F05B
:102A400096E8862F70E060E02AF09A95660F771F6F
:102A5000881FDAF7880F9695879597F90895990F4B
:102A60000008550FAA0BE0E8FEEF16161706E80758
:102A7000F907C0F012161306E407F50798F0621B79
:102A8000730B840B950B39F40A2661F0232B242B4E
:102A9000252B21F408950A2609F4A140A6958FEF6D
:102AA000811D811D08950E9466150C94D7150E9402
:102AB000C91538F00E94D01520F0952311F00C9420
:102AC000C0150C94C61511240C940B160E94E81521
:102AD00070F3959FC1F3950F50E0551F629FF00171
:102AE000729FBB27F00DB11D639FAA27F00DB11D8A
:102AF000AA1F649F6627B00DA11D661F829F222713
:102B0000B00DA11D621F739FB00DA11D621F839F99
:102B1000A00D611D221F749F3327A00D611D231F6F
:102B2000849F600D211D822F762F6A2F11249F57BD
:102B300050409AF0F1F088234AF0EE0FFF1FBB1FC0
:102B4000661F771F881F91505040A9F79E3F51057F
:102B500080F00C94C0150C940B165F3FE4F3983E84
:102B6000D4F3869577956795B795F795E7959F5F29
:102B7000C1F7FE2B880F911D9695879597F90895BB
:102B800097F99F6780E870E060E008959FEF80EC20
:102B9000089500240A9416161706180609060895C3
:102BA00000240A9412161306140605060895092E29
:102BB0000394000C11F4882352F0BB0F40F4BF2B98
:102BC00011F460FF04C06F5F7F4F8F4F9F4F0895D8
:102BD00057FD9058440F551F59F05F3F71F04795CE
:102BE000880F97FB991F61F09F3F79F087950895B3
:102BF000121613061406551FF2CF4695F1DF08C0D2
:102C0000161617061806991FF1CF869571056105EE
:102C100008940895E894BB2766277727CB0197F996
:102C20000895DB018F939F930E949116BF91AF91FE
:102C3000A29F800D911DA39F900DB29F900D112416
:102C40000895AA1BBB1B51E107C0AA1FBB1FA617F3
:102C5000B70710F0A61BB70B881F991F5A95A9F745
:102C600080959095BC01CD01089597FB072E16F431
:102C7000009407D077FD09D00E94211607FC05D0EB
:102C80003EF4909581959F4F0895709561957F4F83
:102C90000895A1E21A2EAA1BBB1BFD010DC0AA1F9D
:102CA000BB1FEE1FFF1FA217B307E407F50720F0B5
:102CB000A21BB30BE40BF50B661F771F881F991F30
:102CC0001A9469F760957095809590959B01AC0179
:102CD000BD01CF010895052E97FB1EF400940E94BC
:102CE000821657FD07D00E94491607FC03D04EF408
:102CF0000C94821650954095309521953F4F4F4F3B
:102D00005F4F089590958095709561957F4F8F4F97
:102D10009F4F08950E94D316B7FF0895821B930B0F
:102D200008950E94D316A59F900DB49F900DA49F67
:102D3000800D911D112408952F923F924F925F9222
:102D40006F927F928F929F92AF92BF92CF92DF92BB
:102D5000EF92FF920F931F93CF93DF93CDB7DEB720
:102D6000CA1BDB0B0FB6F894DEBF0FBECDBF0994B4
:102D70002A88398848885F846E847D848C849B840B
:102D8000AA84B984C884DF80EE80FD800C811B8119
:102D9000AA81B981CE0FD11D0FB6F894DEBF0FBE48
:102DA000CDBFED010895A29FB001B39FC001A39FC5
:102DB000700D811D1124911DB29F700D811D112474
:102DC000911D08955058BB27AA270E94FA160C940B
:102DD000D7150E94C91538F00E94D01520F039F49B
:102DE0009F3F19F426F40C94C6150EF4E095E7FB0A
:102DF0000C94C015E92F0E94E81558F3BA17620722
:102E000073078407950720F079F4A6F50C940A1649
:102E10000EF4E0950B2EBA2FA02D0B01B9019001F5
:102E20000C01CA01A0011124FF27591B99F0593F39
:102E300050F4503E68F11A16F040A22F232F342F81
:102E40004427585FF3CF469537952795A795F040CF
:102E50005395C9F77EF41F16BA0B620B730B840BE4
:102E6000BAF09150A1F0FF0FBB1F661F771F881F9C
:102E7000C2F70EC0BA0F621F731F841F48F48795F4
:102E800077956795B795F7959E3F08F0B0CF9395E6
:102E9000880F08F09927EE0F9795879508950E945F
:102EA00063170C94D7150E94D01558F00E94C915CD
:102EB00040F029F45F3F29F00C94C01551110C9497
:102EC0000B160C94C6150E94E81568F39923B1F30C
:102ED000552391F3951B550BBB27AA276217730740
:102EE000840738F09F5F5F4F220F331F441FAA1FD4
:102EF000A9F335D00E2E3AF0E0E832D09150504090
:102F0000E695001CCAF72BD0FE2F29D0660F771F3D
:102F1000881FBB1F261737074807AB07B0E809F023
:102F2000BB0B802DBF01FF2793585F4F3AF09E3FA8
:102F3000510578F00C94C0150C940B165F3FE4F328
:102F4000983ED4F3869577956795B795F7959F5FEB
:102F5000C9F7880F911D9695879597F90895E1E037
:102F6000660F771F881FBB1F621773078407BA0796
:102F700020F0621B730B840BBA0BEE1F88F7E095F1
:102F800008950E94F01588F09F5798F0B92F99275F
:102F9000B751B0F0E1F0660F771F881F991F1AF044
:102FA000BA95C9F714C0B13091F00E940A16B1E089
:102FB00008950C940A16672F782F8827B85F39F088
:102FC000B93FCCF3869577956795B395D9F73EF4DD
:102FD00090958095709561957F4F8F4F9F4F089585
:102FE0000E942F1508F48FEF08950E942F15880B6B
:102FF000990B0895B7FF0C9491160E949116821BAD
:10300000930B0895EE0FFF1F0590F491E02D0994A6
:103010000F931F93CF93DF938230910510F482E0DA
:1030200090E0E0913305F091340530E020E0B0E02D
:10303000A0E0309799F42115310509F44AC0281B06
:10304000390B24303105D8F58A819B8161157105D2
:1030500089F1FB0193838283FE0111C0408151817C
:103060000281138148175907E0F04817590799F46E
:10307000109761F012960C93129713961C93329648
:10308000CF01DF91CF911F910F91089500933305E8
:1030900010933405F4CF2115310551F04217530731
:1030A00038F0A901DB019A01BD01DF01F801C1CFB0
:1030B000EF01F9CF9093340580933305CDCFFE0116
:1030C000E20FF31F819391932250310939832883B2
:1030D000D7CF2091310530913205232B41F4209137
:1030E0000201309103013093320520933105209184
:1030F0000001309101012115310541F42DB73EB792
:103100004091040150910501241B350BE0913105DC
:10311000F0913205E217F307A0F42E1B3F0B28179E
:10312000390778F0AC014E5F5F4F2417350748F040
:103130004E0F5F1F50933205409331058193919359
:103140009FCFF0E0E0E09CCFCF93DF930097E9F0D2
:10315000FC01329713821282A0913305B09134059D
:10316000ED0130E020E01097A1F420813181820F41
:10317000931F20913105309132052817390709F046
:1031800061C0F0933205E0933105DF91CF9108954E
:10319000EA01CE17DF07E8F54A815B819E01411500
:1031A0005105B1F7E901FB83EA8349915991C40FB5
:1031B000D51FEC17FD0761F4808191810296840F81
:1031C000951FE90199838883828193819B838A83F8
:1031D000F0E0E0E012968D919C9113970097B9F57D
:1031E0002D913C911197CD010296820F931F209152
:1031F0003105309132052817390739F6309751F5E6
:103200001092340510923305B0933205A093310526
:10321000BCCFD383C28340815181840F951FC817CF
:10322000D90761F44E5F5F4F88819981480F591F1C
:10323000518340838A819B81938382832115310549
:1032400009F0B0CFF0933405E09333059ECFFD0134
:10325000DC01C0CF13821282D7CFB0E0A0E0E3E35D
:10326000F9E10C949E168C01009751F4CB010E9459
:1032700008188C01C801CDB7DEB7E0E10C94BA168E
:10328000FC01E60FF71F9C0122503109E217F307FA
:1032900008F49DC0D901CD91DC911197C617D707CD
:1032A00098F0C530D10530F3CE0104978617970703
:1032B00008F3C61BD70B2297C193D1936D937C93D0
:1032C000CF010E94A418D6CF5B01AC1ABD0A4C01F5
:1032D0008C0E9D1EA0913305B0913405512C412CCC
:1032E000F12CE12C109731F5809131059091320548
:1032F0008815990509F05CC04616570608F058C0B5
:103300008091000190910101009741F48DB79EB723
:103310004091040150910501841B950BE817F907B2
:1033200008F055C0F0933205E0933105F90171833F
:103330006083A0CF8D919C91119712966C901297FB
:1033400013967C901397A815B90559F56C0142E0C6
:10335000C40ED11CCA14DB0420F1AC014A195B096C
:10336000DA011296159780F062827382518340834E
:10337000D9016D937C93E114F10471F0D701139698
:10338000FC93EE93129776CF22968C0F9D1FF90136
:1033900091838083F301EFCFF0933405E0933305FD
:1033A00069CF4816590608F42C017D01D3019ACF44
:1033B000CB010E9408187C01009749F0AE01B801CA
:1033C0000E94EA19C8010E94A418870153CF10E097
:1033D00000E050CFFB01DC0102C001900D92415092
:1033E0005040D8F70895FB01DC018D9101908019C0
:1033F0000110D9F3990B0895FB01DC0101900D92A6
:103400000020E1F70895FB01DC014150504048F0F5
:1034100001900D920020C9F701C01D92415050400B
:10342000E0F7089510E0C2E6D0E004C0FE010E947B
:0E34300002182196C336D107C9F7F894FFCFD2
:10343E00000035058000000000002C04EF0253054B
:10344E002B0488049E041304000000008F03EF0277
:10345E001C03DC034D032B033F030D0A006E616E4C
:10346E0000696E66006F766600524D430047474115
:10347E0000475341004753560054585400474C4C94
:10348E00005375636365737366756C6C7920696E32
:10349E00697469616C697A6564004750532073746E
:1034AE00617274656400496E697469616C20416370
:1034BE0063656C65726F6D657465722072656164AB
:1034CE00696E67733A20783D002C20793D002C20E0
:1034DE007A3D00436865636B696E672047505320E1
:1034EE00646174612E2E2E004750533A204C617445
:1034FE0069747564653A20004750533A204C6F6EDC
:10350E006769747564653A20004750533A205370CA
:10351E00656564204D50483A004750533A20475055
:10352E0053206C6F636174696F6E206E6F742076BA
:10353E00616C69640047534D3A2043616C6C696E4F
:10354E00670047534D3A20436F6E6E656374696E24
:10355E006720746F206E6574776F726B0047534DE2
:10356E003A2053686F756C6420626520636F6E6ECF
:10357E00656374656420746F206E6574776F726B0B
:10358E00206279206E6F77004154442B32313336EE
:10359E00363937393239393B0D0047534D3A2044CD
:1035AE0069616C696E67004154480D0047534D3A8E
:1035BE0020446973636F6E6E656374004163636963
:1035CE0064656E742044657465637465643B2000A5
:1035DE004C6F636174696F6E3B20004C617469744B
:1035EE00756465202D2000204C6F6E6769747564BC
:1035FE0065202D2000687474703A2F2F6D617073E2
:10360E002E676F6F676C652E636F6D2F6D617073B4
:10361E003F267A3D3135266D72743D797026743DA4
:08362E006B26713D002B00002A
:00000001FF
