:020000040000FA
:100000000C9463000C948B000C948B000C94CF0523
:100010000C94CF050C94CF050C948B000C948B00A2
:100020000C948B000C948B000C948B000C948B0024
:100030000C948B000C948B000C948B000C948B0014
:100040000C942D050C948B000C949D050C94770555
:100050000C948B000C948B000C948B000C948B00F4
:100060000C948B000C948B0000000008000201002F
:100070000003040700000000000000000000000072
:1000800023002600290000000000240027002A0089
:1000900000000000250028002B00040404040404D0
:1000A0000404020202020202030303030303010227
:1000B00004081020408001020408102001020408F6
:1000C00010209306980911241FBECFEFD8E0DEBFA1
:1000D000CDBF22E0AAEAB1E001C01D92AC3DB2075B
:1000E000E1F711E0A0E0B1E0E8E1F8E102C005903D
:1000F0000D92AA3AB107D9F710E0C2E6D0E004C0E9
:100100002197FE010E94E509C136D107C9F70E9477
:10011000CB060C94FF0B0C940000CF92DF92FF9261
:100120000F931F93CF93DF93EC01F62E142F1B82B6
:100130001A8288EE93E0A0E0B0E08C839D83AE83CA
:10014000BF838AE091E0998388831F8A1E8A198E73
:10015000188E1B8E1A8E1D8E1C8E6E8D6E7F6D7F7F
:100160006E8F6695617081E06827842F0E94470634
:10017000412F50E09A0122553F4FF90164914656B4
:100180005F4FFA018491882399F090E0880F991FBE
:10019000FC01EA57FF4FA591B491FC01E057FF4FD6
:1001A000859194918FB7F8949C91692B6C938FBF34
:1001B000F9012491288BFA014491E42FF0E0EE0F2D
:1001C000FF1FE057FF4F859194919A8B898B0F2DDC
:1001D00010E0C80182559F4F6C01FC012491065626
:1001E0001F4FF80184918823C9F090E0880F991F70
:1001F000FC01EA57FF4FA591B491FC01E057FF4F76
:10020000459154913FB7F8949C91822F8095982303
:100210009C93FA019081892380833FBF8E8D81FD5D
:1002200004C061E08F2D0E944706FC86F601C49051
:10023000CD86F8010491E02FF0E0EE0FFF1FE458A7
:10024000FF4F859194919F878E87DF91CF911F916A
:100250000F91FF90DF90CF9008958E50806480932F
:100260007C0080917A00806480937A0080917A008B
:1002700086FDFCCF809178009091790008953FB77A
:10028000F8948091F5019091F601A091F701B09159
:10029000F80126B5A89B05C02F3F19F00196A11DB6
:1002A000B11D3FBFBA2FA92F982F8827BC01CD01C0
:1002B000620F711D811D911D42E0660F771F881F1F
:1002C000991F4A95D1F708958F929F92AF92BF924E
:1002D000CF92DF92EF92FF924B015C010E943F01AF
:1002E0006B017C010E943F016C197D098E099F09F9
:1002F000683E734081059105A8F321E0821A9108B8
:10030000A108B10888EEC80E83E0D81EE11CF11CDC
:1003100081149104A104B10429F7FF90EF90DF90BC
:10032000CF90BF90AF909F908F900895AF92BF9263
:10033000CF92DF92EF92FF920F931F93CF93DF93B1
:100340006C017B018B01040F151FEB015E01AE18E0
:10035000BF08C017D10759F06991D601ED91FC9102
:100360000190F081E02DC6010995892B79F7C5012F
:10037000DF91CF911F910F91FF90EF90DF90CF9081
:10038000BF90AF900895FC01538D448D252F30E030
:10039000842F90E0821B930B541710F0CF96089592
:1003A00001970895FC01918D828D981761F0A28DBF
:1003B000AE0FBF2FB11D5D968C91928D9F5F9F7385
:1003C000928F90E008958FEF9FEF0895FC01918D3B
:1003D000828D981731F0828DE80FF11D858D90E0A8
:1003E00008958FEF9FEF0895FC01918D228D892F45
:1003F00090E0805C9F4F821B91098F73992708952D
:100400008DEF91E00E94F40121E0892B09F420E0B6
:10041000822F089580E090E0892B29F00E9400024D
:1004200081110C9400000895FC01A48DA80FB92F30
:10043000B11DA35ABF4F2C91848D90E001968F730C
:100440009927848FA689B7892C93A089B1898C912B
:10045000837080648C93938D848D981306C002887A
:10046000F389E02D80818F7D80830895EF92FF9244
:100470000F931F93CF93DF93EC0181E0888F9B8DC7
:100480008C8D98131AC0E889F989808185FF15C081
:100490009FB7F894EE89FF896083E889F9898081A4
:1004A0008370806480839FBF81E090E0DF91CF9173
:1004B0001F910F91FF90EF900895F62E0B8D10E095
:1004C0000F5F1F4F0F731127E02E8C8D8E110CC004
:1004D0000FB607FCFACFE889F989808185FFF5CF4F
:1004E000CE010E941402F1CFEB8DEC0FFD2FF11D18
:1004F000E35AFF4FF0829FB7F8940B8FEA89FB898C
:1005000080818062CFCFCF93DF93EC01888D8823E9
:10051000B9F0AA89BB89E889F9898C9185FD03C066
:10052000808186FD0DC00FB607FCF7CF8C9185FF4B
:10053000F2CF808185FFEDCFCE010E941402E9CF7A
:10054000DF91CF9108952091FB013091FC01281794
:10055000390771F49091F9018091FA01981741F0EF
:10056000E091F901F0E0E655FE4F808190E00895BA
:100570008FEF9FEF08950895EF92FF920F931F93CF
:10058000CF93DF93DC015C96ED90FC905D97E114D6
:10059000F10479F481E090E013969C938E93129786
:1005A00090E080E0DF91CF911F910F91FF90EF904D
:1005B00008955196ED91FC91529750968C915097D9
:1005C000982F90950FB75E962C915E97122F127010
:1005D00021FD6095F8942081112319F1282B2083A7
:1005E000E7012197F1F728E0462F50E0308160FFC6
:1005F0001AC0382B3083E7012197F1F7BA017595BE
:100600006795215089F7112381F0808189238083A8
:100610000FBF5C968D919C910197F1F781E090E07E
:10062000C1CF2923DCCF3923E5CF9081892BEFCFB0
:100630002091FB013091FC012817390761F480916A
:10064000FA012091F90190E0805C9F4F821B910993
:100650008F739927089590E080E008952091FB0121
:100660003091FC0128173907B9F49091F901809174
:10067000FA01981789F0E091F901F0E0E655FE4F94
:1006800080812091F90130E02F5F3F4F2F73332796
:100690002093F90190E008958FEF9FEF0895E09186
:1006A000FB01F091FC01E817F90769F4A389B4890B
:1006B0009C918589809589238C931092FC011092DE
:1006C000FB0181E0089580E00895CF93DF93EC0172
:1006D0001B8E1A8E198E188E1F8A1E8A8DE991E044
:1006E0009D8F8C8F8C858631E0F52DEB30E03F8B34
:1006F0002E8B2BE931E0398F288F2CE231E03B8FB4
:100700002A8F90916800883008F44EC021E08E3026
:1007100008F420E081E001C0880F2A95EAF7892BD0
:10072000809368009C852DE630E0983050F02BE6F1
:1007300030E09E3030F02CE630E0963110F030E0C2
:1007400020E03C8B2B8B292F30E0983078F581E02E
:1007500001C0880F9A95EAF78D8B8C8D9D8D01973E
:10076000F1F78A8D9B8D892BE1F08091FB019091AF
:10077000FC01C817D907A9F0009711F00E944F0398
:100780008E8D8E7F8E8F1092FA011092F901D09388
:10079000FC01C093FB01EB89FC8980819D89892B39
:1007A0008083DF91CF91089584E0B9CF9E3040F4EB
:1007B0002850310981E001C0880F2A95EAF7CCCF93
:1007C0002E503109F7CF90E080E00895CF93DF936A
:1007D000FC01248135816217730788F49B01C08175
:1007E000D1816CE270E0CE01820F931F0E94D60B84
:1007F000009729F08C1B9D0BDF91CF9108958FEF0F
:100800009FEFFACFFB0101900020E9F73197AF018C
:10081000461B570BDC01ED91FC910280F381E02D2A
:1008200009940F931F93CF93DF93EC010E9402046E
:100830008C016AE271E0CE010E940204800F911FD8
:10084000DF91CF911F910F910895CF93DF93EC012A
:1008500088819981009711F00E94870A1982188275
:100860001D821C821B821A82DF91CF910895FC01A8
:1008700080819181009711F00C94870A08950F935D
:100880001F93CF93DF93EC0188819981009759F0F2
:100890002A813B812617370730F081E0DF91CF9125
:1008A0001F910F9108958B016F5F7F4F0E94100B76
:1008B000009759F0998388831B830A832C813D819B
:1008C000232B59F7FC011082E8CF80E0E7CFEF92AD
:1008D000FF920F931F93CF93DF936115710541F43E
:1008E00080E0DF91CF911F910F91FF90EF900895DD
:1008F00041155105B1F07B01EC010C811D81040F04
:10090000151FB8010E943F04882351F328813981C3
:100910008C819D81B701820F931F0E94EA0B1D837A
:100920000C8381E0DECFCF93DF93EC01FB014481A8
:100930005581608171810E946704811103C0CE01DD
:100940000E942504CE01DF91CF910895EF92FF928E
:100950000F931F93CF93DF93EC017B018A01BA01C0
:100960000E943F0481110BC0CE010E942504CE01DC
:10097000DF91CF911F910F91FF90EF9008951D830C
:100980000C83B701888199810E94EA0BF0CFFB01AB
:1009900001900020E9F73197AF01461B570B0C94EB
:1009A000A604AF92BF92CF92DF92EF92FF920F9385
:1009B0001F93CF93DF93EC016B015A017901241748
:1009C000350720F48B2D5901E42EF82E1982188258
:1009D0001B821A821D821C826CE271E0CE010E9491
:1009E000C704D60114960D911C91A016B10628F5E6
:1009F000E016F10608F48701D601ED91FC911197FC
:100A0000E00FF11FF08010826D917C916A0D7B1DCB
:100A100061157105F1F0FB0101900020E9F73197B4
:100A2000AF01461B570BCE010E94A604F601808140
:100A30009181080F191FD801FC92CE01DF91CF914F
:100A40001F910F91FF90EF90DF90CF90BF90AF90EC
:100A50000895CE010E942504E9CF1F920F920FB690
:100A60000F9211242F933F938F939F93AF93BF9334
:100A70008091F1019091F201A091F301B091F40104
:100A80003091F00123E0230F2D3758F50196A11D79
:100A9000B11D2093F0018093F1019093F201A09396
:100AA000F301B093F4018091F5019091F601A091CA
:100AB000F701B091F8010196A11DB11D8093F501D8
:100AC0009093F601A093F701B093F801BF91AF9115
:100AD0009F918F913F912F910F900FBE0F901F907C
:100AE000189526E8230F0296A11DB11DD2CF1F92A3
:100AF0000F920FB60F9211242F933F934F935F9352
:100B00006F937F938F939F93AF93BF93EF93FF93D5
:100B10008DEF91E00E941402FF91EF91BF91AF9190
:100B20009F918F917F916F915F914F913F912F9105
:100B30000F900FBE0F901F9018951F920F920FB637
:100B40000F9211242F938F939F93EF93FF93E09134
:100B50000D02F0910E028081E0911302F0911402D7
:100B600082FD1BC09081809116028F5F8F73209150
:100B70001702821741F0E0911602F0E0E350FE4FB9
:100B8000958F80931602FF91EF919F918F912F91F6
:100B90000F900FBE0F901F9018958081F4CF1F9279
:100BA0000F920FB60F9211242F933F934F935F93A1
:100BB0006F937F938F939F93AF93BF93EF93FF9325
:100BC000E091FB01F091FC01309749F0A685B785D3
:100BD0008585968D91FF14C09C918923A1F4FF9186
:100BE000EF91BF91AF919F918F917F916F915F91A5
:100BF0004F913F912F910F900FBE0F901F9018951E
:100C00009C91892361F7A389B4899C9185898095FA
:100C100089238C93868997890197F1F7608D718D6F
:100C2000A685B785558538E020E0CB010197F1F71F
:100C3000822F90E095958795282F4C91452309F0B8
:100C40002068315091F7868D81FD20958091FA01C1
:100C500090E001968F7399273091F901381799F038
:100C6000A091FA01B0E0A655BE4F2C938093FA01F3
:100C7000828D938D0197F1F7A389B4898C91958921
:100C8000892B8C93ACCF868D8160868FF1CF90E0DD
:100C9000FC01E859FF4F2491FC01E255FF4F3491CC
:100CA000FC01E656FF4FE491EE23C9F0222339F010
:100CB000233001F1A8F4213019F1223029F1F0E0BC
:100CC000EE0FFF1FE057FF4FA591B4918FB7F89437
:100CD000EC91611126C030953E233C938FBF08955F
:100CE0002730A9F02830C9F0243049F780918000DE
:100CF0008F7D03C0809180008F7780938000DFCF4D
:100D000084B58F7784BDDBCF84B58F7DFBCF809199
:100D1000B0008F778093B000D2CF8091B0008F7DEC
:100D2000F9CF3E2BDACFEDEFF1E01382128288EE9D
:100D300093E0A0E0B0E084839583A683B7838CE141
:100D400091E09183808385EC90E09587848784ECA3
:100D500090E09787868780EC90E0918B808B81EC88
:100D600090E0938B828B82EC90E0958B848B86EC69
:100D700090E0978B868B118E128E138E148E4BE023
:100D80006AE089EB92E00E948D0043E062E08AE92C
:100D900092E00C948D00CF93DF93CDB7DEB7E4974C
:100DA0000FB6F894DEBF0FBECDBF789484B58260D5
:100DB00084BD84B5816084BD85B5826085BD85B5FF
:100DC000816085BD80916E00816080936E0010927D
:100DD00081008091810082608093810080918100F8
:100DE0008160809381008091800081608093800089
:100DF0008091B10084608093B1008091B0008160E7
:100E00008093B00080917A00846080937A00809112
:100E10007A00826080937A0080917A00816080936A
:100E20007A0080917A00806880937A001092C100E5
:100E3000E0910D02F0910E0282E08083E0910902C0
:100E4000F0910A021082E0910B02F0910C028FECFB
:100E5000808310921502E0911102F091120286E057
:100E60008083E0910F02F091100280818061808385
:100E7000E0910F02F0911002808188608083E09100
:100E80000F02F0911002808180688083E0910F0250
:100E9000F091100280818F7D808389EB92E00E9427
:100EA00065038AE992E00E94650368EE73E080E0E2
:100EB00090E00E9464016DE271E089EB92E00E9493
:100EC000110468EE73E080E090E00E94640160E34A
:100ED00071E089EB92E00E94110468EE73E080E01B
:100EE00090E00E9464012E012BE2420E511C8EE024
:100EF0000E942D011C018FE00E942D019AAB89AB4D
:100F000080E10E942D019CAB8BAB8091EE01909112
:100F1000EF01F101E81BF90BCF01F7FF03C0919539
:100F200081959109893592401CF58091EC01909151
:100F3000ED0129A93AA9281B390BC90137FF03C0C4
:100F40009195819591098935924094F48091EA01B7
:100F50009091EB01EBA9FCA9E81BF90BCF01F7FF7E
:100F600003C0919581959109893592400CF4A1C1F6
:100F70006AE371E08DEF91E00E9411041EA21DA2B0
:100F800018A61FA21AA619A66CE271E0CE018596DA
:100F90000E94C7048FB7F894C090F101D090F2017D
:100FA000E090F301F090F4018FBF2FB7F894809197
:100FB000F1019091F201A091F301B091F4012FBFE2
:100FC0008C199D09AE09BF09803D9740A105B10567
:100FD00008F09BC18AE992E00E941803892B29F34B
:100FE0008AE992E00E942E0389831A8241E050E050
:100FF000BE016F5F7F4FCE0185960E9467041A8203
:1010000019821C821B821E821D826BE271E0CE015E
:1010100001960E94C70429A53AA54D815E81241737
:10102000350790F08DA19EA1009771F069817A81BA
:101030006115710549F0241B350B820F931F0E9427
:10104000E10B11E0892B09F010E0CE0101960E941E
:101050003704112309F4A9CF1A8219821C821B823A
:101060001E821D826DE471E0CE0101960E94C704CC
:101070004D815E8189A59AA58417950770F08DA191
:101080009EA1009751F069817A816115710529F05F
:101090000E94F10B11E0892B09F010E0CE010196BE
:1010A0000E943704112309F427C118A21F8E1AA227
:1010B00019A21CA21BA26DA17EA16115710531F0C0
:1010C00049A55AA5CE014F960E94A60470E060E0A3
:1010D000CE014F960E94E603BC016F5F7F4FCE01A9
:1010E0004F960E94E603BC016F5F7F4FCE014F9683
:1010F0000E94E60301963C01BC01CE014F960E947E
:10110000E6034C016C013FEFC31AD30AB601CE01CE
:101110004F960E94E6035C017C018FEFE81AF80A03
:10112000B701CE014F960E94E6038C019401A30102
:10113000BE01615E7F4FCE0149960E94D1049501A8
:10114000A601BE01615E7F4FCE0143960E94D1048D
:101150009801A701BE01615E7F4FCE010D960E94EE
:10116000D1040F5F1F4FB801CE014F960E94E603D6
:101170009C01A801BE01615E7F4FCE0107960E94CF
:10118000D1041A8219821C821B821E821D82698DE3
:101190007A8D6115710531F04D8D5E8DCE01019610
:1011A0000E94A604BE016D5E7F4FCE0101960E9493
:1011B00093048C0141E050E064E571E00E94670413
:1011C000811103C0C8010E942504BE01635F7F4FE7
:1011D000C8010E949304BE01695F7F4F0E9493047F
:1011E0001CA61BA61EA61DA618AA1FA6841595053B
:1011F00059F0FC01608171816115710529F044810C
:101200005581C2010E94A604CE0101960E943704B6
:10121000CE0107960E943704CE010D960E94370436
:10122000CE0143960E943704CE0149960E943704AE
:10123000CE014F960E943704CE0185960E94370456
:101240008FA598A9892B09F46CC0EBA5FCA580811A
:10125000882309F466C066E571E089EB92E00E949C
:10126000020468EE73E080E090E00E9464016FE6A3
:1012700071E089EB92E00E9402044FA558A96BA58A
:101280007CA589EB92E00E94960164E670E080E024
:1012900090E00E9464016AE189EB92E00E94BC0246
:1012A00068E873E180E090E00E946401C2010E945E
:1012B00037043092EF012092EE0129A93AA9309328
:1012C000ED012093EC018BA99CA99093EB018093F5
:1012D000EA0164EF71E080E090E00E94640180E048
:1012E00090E0892B09F403CE0E940002882309F4C0
:1012F000FECD0E940000FBCD50E040E06CE271E0CA
:10130000CE0185960E94A60450CE1CA61BA61EA642
:101310001DA618AA1FA66CE271E0C2010E94C704B4
:101320008BCF61E971E08DEF91E00E941104BECF97
:10133000CF93DF93CAE0D1E0D0939B02C0939A028F
:101340008AE992E00E944F03D093BA02C093B90297
:1013500089EB92E0DF91CF910C944F032F923F9253
:101360004F925F926F927F928F929F92AF92BF92B5
:10137000CF92DF92EF92FF920F931F93CF93DF9361
:10138000CDB7DEB7CA1BDB0B0FB6F894DEBF0FBEBE
:10139000CDBF09942A88398848885F846E847D840B
:1013A0008C849B84AA84B984C884DF80EE80FD800D
:1013B0000C811B81AA81B981CE0FD11D0FB6F89483
:1013C000DEBF0FBECDBFED010895EE0FFF1F0590EC
:1013D000F491E02D09940F931F93CF93DF93823004
:1013E000910510F482E090E0E091DA02F091DB02E6
:1013F00030E020E0B0E0A0E0309799F4211531050D
:1014000009F44AC0281B390B24303105D8F58A81EC
:101410009B816115710589F1FB0193838283FE0134
:1014200011C0408151810281138148175907E0F0B2
:101430004817590799F4109761F012960C93129778
:1014400013961C933296CF01DF91CF911F910F918C
:1014500008950093DA021093DB02F4CF21153105D1
:1014600051F04217530738F0A901DB019A01BD0181
:10147000DF01F801C1CFEF01F9CF9093DB02809338
:10148000DA02CDCFFE01E20FF31F81939193225038
:10149000310939832883D7CF2091D8023091D902DE
:1014A000232B41F420910201309103013093D902A2
:1014B0002093D802209100013091010121153105BE
:1014C00041F42DB73EB74091040150910501241B12
:1014D000350BE091D802F091D902E217F307A0F49E
:1014E0002E1B3F0B2817390778F0AC014E5F5F4F7A
:1014F0002417350748F04E0F5F1F5093D9024093D1
:10150000D802819391939FCFF0E0E0E09CCFCF93FE
:10151000DF930097E9F0FC01329713821282A091C9
:10152000DA02B091DB02ED0130E020E01097A1F487
:1015300020813181820F931F2091D8023091D902EE
:101540002817390709F061C0F093D902E093D80257
:10155000DF91CF910895EA01CE17DF07E8F54A81C0
:101560005B819E0141155105B1F7E901FB83EA83D7
:1015700049915991C40FD51FEC17FD0761F4808183
:1015800091810296840F951FE90199838883828156
:1015900093819B838A83F0E0E0E012968D919C9189
:1015A00013970097B9F52D913C911197CD010296B3
:1015B000820F931F2091D8023091D9022817390742
:1015C00039F6309751F51092DB021092DA02B0939F
:1015D000D902A093D802BCCFD383C283408151816A
:1015E000840F951FC817D90761F44E5F5F4F88813C
:1015F0009981480F591F518340838A819B8193832E
:1016000082832115310509F0B0CFF093DB02E0931E
:10161000DA029ECFFD01DC01C0CF13821282D7CF48
:10162000B0E0A0E0E6E1FBE00C94B0098C0100978B
:1016300051F4CB010E94EB098C01C801CDB7DEB794
:10164000E0E10C94CC09FC01E60FF71F9C0122504D
:101650003109E217F30708F49DC0D901CD91DC915F
:101660001197C617D70798F0C530D10530F3CE01D2
:1016700004978617970708F3C61BD70B2297C193C9
:10168000D1936D937C93CF010E94870AD6CF5B01E3
:10169000AC1ABD0A4C018C0E9D1EA091DA02B091CD
:1016A000DB02512C412CF12CE12C109731F580916B
:1016B000D8029091D9028815990509F05CC04616A8
:1016C000570608F058C080910001909101010097E1
:1016D00041F48DB79EB74091040150910501841BE0
:1016E000950BE817F90708F055C0F093D902E0937D
:1016F000D802F90171836083A0CF8D919C911197DD
:1017000012966C90129713967C901397A815B905B2
:1017100059F56C0142E0C40ED11CCA14DB0420F15F
:10172000AC014A195B09DA011296159780F06282C2
:10173000738251834083D9016D937C93E114F1044A
:1017400071F0D7011396FC93EE93129776CF229601
:101750008C0F9D1FF90191838083F301EFCFF093EC
:10176000DB02E093DA0269CF4816590608F42C012F
:101770007D01D3019ACFCB010E94EB097C01009738
:1017800049F0AE01B8010E94CD0BC8010E94870A42
:10179000870153CF10E000E050CFFB01DC0102C015
:1017A00001900D9241505040D8F70895FC0181916D
:1017B000861721F08823D9F7992708953197CF010B
:1017C0000895FB01DC018D91019080190110D9F37E
:1017D000990B0895FB01DC0101900D920020E1F7C7
:1017E0000895FB01DC014150504030F08D91019093
:1017F000801919F40020B9F7881B990B089510E09F
:10180000C2E6D0E004C0FE010E94E5092196C3367D
:10181000D107C9F7F894FFCF0000DC028000000078
:101820000000BC029601E303BB0218032E03A302CF
:101830000000000036029601C3018302F401D201C8
:10184000E6010D0A0041540041542B434D47463DEB
:1018500031004163636964656E7420646574656317
:101860007465642100244750524D43002C004154BC
:101870002B434D47533D222B32313358585858583B
:1018800058585858220D004163636964656E74208E
:1018900064657465637465642120475053206C6FE0
:1018A000636174696F6E3A2000556E61626C6520E9
:1018B000746F206765742047505320646174612EF3
:0218C000000026
:107E0000112484B714BE81FFF0D085E080938100F7
:107E100082E08093C00088E18093C10086E0809377
:107E2000C20080E18093C4008EE0C9D0259A86E02C
:107E300020E33CEF91E0309385002093840096BBD3
:107E4000B09BFECF1D9AA8958150A9F7CC24DD24C4
:107E500088248394B5E0AB2EA1E19A2EF3E0BF2EE7
:107E6000A2D0813461F49FD0082FAFD0023811F036
:107E7000013811F484E001C083E08DD089C08234E0
:107E800011F484E103C0853419F485E0A6D080C0E4
:107E9000853579F488D0E82EFF2485D0082F10E0AE
:107EA000102F00270E291F29000F111F8ED06801E7
:107EB0006FC0863521F484E090D080E0DECF843638
:107EC00009F040C070D06FD0082F6DD080E0C81688
:107ED00080E7D80618F4F601B7BEE895C0E0D1E017
:107EE00062D089930C17E1F7F0E0CF16F0E7DF06D8
:107EF00018F0F601B7BEE89568D007B600FCFDCFD4
:107F0000A601A0E0B1E02C9130E011968C91119780
:107F100090E0982F8827822B932B1296FA010C0160
:107F200087BEE89511244E5F5F4FF1E0A038BF0790
:107F300051F7F601A7BEE89507B600FCFDCF97BE46
:107F4000E89526C08437B1F42ED02DD0F82E2BD052
:107F50003CD0F601EF2C8F010F5F1F4F84911BD097
:107F6000EA94F801C1F70894C11CD11CFA94CF0C13
:107F7000D11C0EC0853739F428D08EE10CD085E9AC
:107F80000AD08FE07ACF813511F488E018D01DD067
:107F900080E101D065CF982F8091C00085FFFCCF94
:107FA0009093C60008958091C00087FFFCCF809118
:107FB000C00084FD01C0A8958091C6000895E0E648
:107FC000F0E098E1908380830895EDDF803219F02E
:107FD00088E0F5DFFFCF84E1DECF1F93182FE3DFCA
:107FE0001150E9F7F2DF1F91089580E0E8DFEE27F6
:047FF000FF270994CA
:027FFE00040479
:00000001FF
